:020000040000FA
:06000000A2EF10F0120057
:0A0006000100C021000060000000AE
:040010000D000000DF
:0C001400D9CFE6FFE1CFD9FF0A0E126E33
:1000200012C00CF0FE0EDBCF07F0B0EC10F003C0F6
:1000300011F00A0E106E10C00CF0FE0EDBCF07F0B0
:10004000B0EC10F00738F00B111000D0E552E7CFFC
:10005000D9FF1200D9CFE6FFE1CFD9FFE652FD0E5E
:10006000DBCFE9FFFE0EDBCFEAFFEF50D00F100D24
:10007000F350DF6EFD0EDB2AFE0E01E3DB2AFD0EE0
:10008000DBCFE9FFFE0EDBCFEAFFEF50D00FDF1032
:1000900000D0E552E552E7CFD9FF1200D9CFE6FFF5
:1000A000E1CFD9FFFE0EDB500F0B106EFE0EDB38DA
:1000B0000F0B0A0DF350102400D0E552E7CFD9FF03
:1000C0001200D9CFE6FFE1CFD9FFE652DF6AFC0E7E
:1000D000DB50DF5C0FE2FD0EDBCFE9FFFE0EDBCF76
:1000E000EAFF200EEF6EFD0EDB2AFE0E01E3DB2A97
:1000F000DF2AEDD7E552E552E7CFD9FF1200D9CF7D
:10010000E6FFE1CFD9FF3D0EE126D950060FE96E9B
:10011000DACFEAFF0A0EEE6E450EEE6E6E0EEE6E52
:10012000740EEE6E650EEE6E720EEE6E200EEE6EBC
:10013000740EEE6E680EEE6E650EEE6E200EEE6EB6
:10014000740EEE6E690EEE6E6D0EEE6E650EEE6E58
:10015000200EEE6E690EEE6E6E0EEE6E200EEE6EE0
:10016000740EEE6E680EEE6E650EEE6E200EEE6E86
:10017000660EEE6E6F0EEE6E720EEE6E6D0EEE6E23
:10018000610EEE6E740EEE6E200EEE6E480EEE6E8A
:10019000EE6E4D0EEE6EEE6E530EEE6EEE6EEE6A7F
:1001A000D9502B0FE96EDACFEAFF0A0EEE6E490E38
:1001B000EE6E6E0EEE6E760EEE6E610EEE6E6C0EE6
:1001C000EE6E690EEE6E640EEE6E200EEE6E450E55
:1001D000EE6E6E0EEE6E740EEE6E720EEE6E790EAA
:1001E000EE6E2E0EEE6EEE6E210EEE6EEE6AD950B3
:1001F000060FE66E000EDA20E66EF2EC0DF0E55228
:10020000E552060EE66E600EE66E000EE66E36EC09
:100210000EF0E552E552E552600EE66E000EE66E17
:1002200019DFE552E552E76E020EE7CFDBFF620E03
:10023000E66E000EE66E0EDFE552E552E76E010E49
:10024000E7CFDBFF640EE66E000EE66E03DFE552DD
:10025000E552DF6EDFCFE6FF21DFE552E76E030EEA
:10026000E7CFDBFF010EDBCFE6FF18DFE552E76EDD
:10027000040EE7CFDBFF020EDBCFE6FF0FDFE55218
:10028000E76E050EE7CFDBFFF80EDB5003E0F80E5C
:10029000DB045DE1000EF36E030EDBCFF4FFF350E1
:1002A000F45C4AE3030EDB503B0846E3000EF36EBA
:1002B000040EDBCFF4FFF350F45C3EE3040EDB509E
:1002C0003B083AE3010EF36E050EDBCFF4FFF3506B
:1002D000F45C32E3050EDB500C082EE37F0EDF14D6
:1002E000DF6E010EDB507F0BE76E010EE7CFDBFF09
:1002F000020EDB501F0BE76E020EE7CFDBFFF80E9E
:10030000DB5008E1020EDB504009E76E020EE7CF3A
:10031000DBFF0AD0F80EDB0407E1020EDB506009B8
:10032000E76E020EE7CFDBFF020EDB507F0BE76EBE
:10033000020EE7CFDBFF0AD0D9502B0FE66E000E7E
:10034000DA20E66EF2EC0DF0E552E5523FD0000EF9
:10035000F36E030EDBCFF4FFF350F45C2DE3030EDA
:10036000DB503B0829E3000EF36E040EDBCFF4FFF5
:10037000F350F45C21E3040EDB503B081DE3000E58
:10038000F36E050EDBCFF4FFF350F45C15E3050EBE
:10039000DB50180811E3F80EDB5002080DE1020EE5
:1003A000DB50E76E020EE7CFDBFFDB507F0BE76E23
:1003B000020EE7CFDBFF0AD0D9502B0FE66E000EFE
:1003C000DA20E66EF2EC0DF0E552E552000EF36E27
:1003D000030EDBCFF4FFF350F45C1CE3030EDB50A1
:1003E0003B0818E3000EF36E040EDBCFF4FFF3506E
:1003F000F45C10E3040EDB503B080CE3010EF36EDB
:10040000050EDBCFF4FFF350F45C04E3050EDB5084
:100410000C082FE2000EF36E030EDBCFF4FFF35057
:10042000F45C01E2E4D6030EDB503B0801E2DFD6C8
:10043000000EF36E040EDBCFF4FFF350F45C01E228
:10044000D6D6040EDB503B0801E2D1D6000EF36E87
:10045000050EDBCFF4FFF350F45C01E2C8D6050EC5
:10046000DB50180801E2C3D6F80EDB50020801E0A9
:10047000BED6FD0EDBCFE9FFFE0EDBCFEAFFDFCFFE
:10048000EFFFFB0EDBCFE9FFFC0EDBCFEAFF010E37
:10049000DBCFEFFFF90EDBCFE9FFFA0EDBCFEAFF90
:1004A000020EDBCFEFFF3D0EE15C02E2E16AE552B6
:1004B000E16EE552E7CFD9FF1200D9CFE6FFE1CFD9
:1004C000D9FF560EE126D9CFE9FFDACFEAFF0A0EAF
:1004D000EE6E490EEE6E6E0EEE6E760EEE6E610EE6
:1004E000EE6E6C0EEE6E690EEE6E640EEE6E200E0B
:1004F000EE6E450EEE6E6E0EEE6E740EEE6E720EBB
:10050000EE6E790EEE6E2E0EEE6EEE6E210EEE6E2D
:10051000EE6AD950120FE96EDACFEAFF0A0EEE6EDC
:10052000450EEE6E6E0EEE6E740EEE6E650EEE6E97
:10053000720EEE6E200EEE6E740EEE6E680EEE6EA5
:10054000650EEE6E200EEE6E440EEE6E410EEE6EF9
:10055000590EEE6E200EEE6E530EEE6E550EEE6ED2
:100560004E0EEE6E2D0EEE6E300EEE6E310EEE6E07
:10057000200EEE6E4D0EEE6E4F0EEE6E4E0EEE6EC9
:100580002D0EEE6E300EEE6E320EEE6E200EEE6E14
:10059000540EEE6E550EEE6E450EEE6E2D0EEE6E98
:1005A000300EEE6E330EEE6E200EEE6E570EEE6EC9
:1005B000450EEE6E440EEE6E2D0EEE6E300EEE6EAD
:1005C000340EEE6E200EEE6E540EEE6E480EEE6E93
:1005D000550EEE6E520EEE6E530EEE6E2D0EEE6E4C
:1005E000300EEE6E350EEE6E200EEE6E460EEE6E98
:1005F000520EEE6E490EEE6E2D0EEE6E300EEE6E5B
:10060000360EEE6E200EEE6E530EEE6E410EEE6E58
:10061000540EEE6E2D0EEE6E300EEE6E370EEE6E4A
:10062000EE6AEE6AD950120FE66E000EDA20E66E20
:10063000F2EC0DF0E552E552080EE66E600EE66E45
:10064000000EE66E3EDDE552E552E552020EE66E24
:10065000600EE66E000EE66E36EC0EF0E552E552E8
:10066000E552600EE66E000EE66EF4DCE552E552F1
:10067000E76E550EE7CFDBFF600EE66E000EE66E0E
:10068000F2EC0DF0E552E552010EF36E550EDBCFA4
:10069000F4FFF350F45C08E3550EDB50070804E365
:1006A000550EDB5015D008D0D9CFE6FFDACFE6FFE4
:1006B000F2EC0DF0E552E552010EF36E550EDBCF74
:1006C000F4FFF350F45CC2E3550EDB500708BEE3C1
:1006D000106E560EE15C02E2E16AE552E16E1050E6
:1006E000E552E7CFD9FF1200D9CFE6FFE1CFD9FF1E
:1006F000330EE126D950030FE96EDACFEAFF0A0E76
:10070000EE6E450EEE6E6E0EEE6E740EEE6E650EB5
:10071000EE6E720EEE6E200EEE6E440EEE6E410E1A
:10072000EE6E540EEE6E450EEE6E2F0EEE6E4D0E0C
:10073000EE6E4F0EEE6E4E0EEE6E540EEE6E480ED8
:10074000EE6E2F0EEE6E590EEE6E450EEE6E410EF3
:10075000EE6E520EEE6E090EEE6E440EEE6EEE6E04
:100760004D0EEE6EEE6E590EEE6EEE6EEE6AD950D6
:10077000210FE96EDACFEAFF0A0EEE6E490EEE6E39
:100780006E0EEE6E760EEE6E610EEE6E6C0EEE6E10
:10079000690EEE6E640EEE6E200EEE6E450EEE6E7F
:1007A0006E0EEE6E740EEE6E720EEE6E790EEE6ED4
:1007B0002E0EEE6EEE6E210EEE6EEE6AD950030F27
:1007C000E66E000EDA20E66EF2EC0DF0E552E55230
:1007D000060EE66E600EE66E000EE66E36EC0EF06D
:1007E000E552E552E552600EE66E000EE66E32DC32
:1007F000E552E552E66EFD0EDBCFE9FFFE0EDBCFE4
:10080000EAFFE552E750EF6E620EE66E000EE66E0E
:1008100021DCE552E552E66EFB0EDBCFE9FFFC0E74
:10082000DBCFEAFFE552E750EF6E640EE66E000E96
:10083000E66E10DCE552E552E66EF90EDBCFE9FF1D
:10084000FA0EDBCFEAFFE552E750EF6EFD0EDBCF8D
:10085000E9FFFE0EDBCFEAFFEF50E66E1FDCE5524C
:10086000DF6EFB0EDBCFE9FFFC0EDBCFEAFFEF50C4
:10087000E66E14DCE552E76E010EE7CFDBFFF90E02
:10088000DBCFE9FFFA0EDBCFEAFFEF50E66E4EEC6E
:1008900000F0E552E76E020EE7CFDBFF010EDF5CF2
:1008A00050E3DF501F084DE3010EF36EDBCFF4FF82
:1008B000F350F45C46E3010EDB500C0842E3010EFA
:1008C000F36E020EDBCFF4FFF350F45C3AE3020E5A
:1008D000DB50630836E3FD0EDBCFE9FFFE0EDBCF16
:1008E000EAFFEF503F0BE66EFD0EDBCFE9FFFE0E99
:1008F000DBCFEAFFE552E750EF6EFB0EDBCFE9FFFF
:10090000FC0EDBCFEAFFEF501F0BE66EFB0EDBCFDA
:10091000E9FFFC0EDBCFEAFFE552E750EF6EF90E80
:10092000DBCFE9FFFA0EDBCFEAFFEF50E66EF90E00
:10093000DBCFE9FFFA0EDBCFEAFFE552E750EF6EBF
:100940000AD0D950210FE66E000EDA20E66EF2ECE6
:100950000DF0E552E552000EDF5C01E22FD7DF50CB
:100960001F0801E22BD7000EF36E010EDBCFF4FF60
:10097000F350F45C01E222D7010EDB500C0801E2D7
:100980001DD7000EF36E020EDBCFF4FFF350F45CC4
:1009900001E214D7020EDB50630801E20FD7330ED9
:1009A000E15C02E2E16AE552E16EE552E7CFD9FF90
:1009B0001200D9CFE6FFE1CFD9FF4D0EE126040E9C
:1009C000F36E070EF3CFDBFFD950080FE96EDACFD5
:1009D000EAFF0A0EEE6E530EEE6E450EEE6E4C0EF4
:1009E000EE6E450EEE6E430EEE6E540EEE6E200E63
:1009F000EE6E4D0EEE6E4F0EEE6E440EEE6E450E2A
:100A0000EE6E200EEE6E310EEE6E320EEE6E2F0E8C
:100A1000EE6E320EEE6E340EEE6EEE6AD9501B0F95
:100A2000E96EDACFEAFF0A0EEE6E450EEE6E6E0E3E
:100A3000EE6E740EEE6E650EEE6E720EEE6E200EA3
:100A4000EE6E410EEE6E4D0EEE6E2F0EEE6E500EF1
:100A5000EE6E4D0EEE6E3F0EEE6EEE6AD950290F21
:100A6000E96EDACFEAFF0A0EEE6E490EEE6E6E0EFA
:100A7000EE6E760EEE6E610EEE6E6C0EEE6E690E22
:100A8000EE6E640EEE6E200EEE6E450EEE6E6E0E87
:100A9000EE6E740EEE6E720EEE6E790EEE6E2E0E21
:100AA000EE6EEE6E210EEE6EEE6AD9503B0FE96EE1
:100AB000DACFEAFF310EEE6E320EEE6EEE6AD950EC
:100AC0003E0FE96EDACFEAFF320EEE6E340EEE6EB6
:100AD000EE6AD950410FE96EDACFEAFF610EEE6E91
:100AE0006D0EEE6EEE6AD950440FE96EDACFEAFF72
:100AF000410EEE6E4D0EEE6EEE6AD950470FE96E66
:100B0000DACFEAFF700EEE6E6D0EEE6EEE6AD95021
:100B10004A0FE96EDACFEAFF500EEE6E4D0EEE6E22
:100B2000EE6AD950080FE66E000EDA20E66EF2EC9F
:100B30000DF0E552E552020EE66E600EE66E000E16
:100B4000E66E36EC0EF0E552E552E552D9503B0F19
:100B5000E66E000EDA20E66E600EE66E000EE66EC1
:100B6000FAEC0FF0E552E552E552E552000901E0DA
:100B700077D0D9501B0FE66E000EDA20E66EF2EC4D
:100B80000DF0E552E552020EE66E600EE66E000EC6
:100B9000E66E36EC0EF0E552E552E552D950410FC3
:100BA000E66E000EDA20E66E600EE66E000EE66E71
:100BB000FAEC0FF0E552E552E552E552000912E079
:100BC000D950440FE66E000EDA20E66E600EE66E37
:100BD000000EE66EFAEC0FF0E552E552E552E552F2
:100BE000000903E1070EDB6A34D0D950470FE66EE7
:100BF000000EDA20E66E600EE66E000EE66EFAEC8F
:100C00000FF0E552E552E552E552000912E0D950E5
:100C10004A0FE66E000EDA20E66E600EE66E000EFB
:100C2000E66EFAEC0FF0E552E552E552E5520009A6
:100C300006E1010EF36E070EF3CFDBFF0AD0D950A9
:100C4000290FE66E000EDA20E66EF2EC0DF0E552AA
:100C5000E552070EDB5003E0070EDB048AE122D0E9
:100C6000D9503E0FE66E000EDA20E66E600EE66E9C
:100C7000000EE66EFAEC0FF0E552E552E552E55251
:100C8000000906E1020EF36E070EF3CFDBFF0AD078
:100C9000D950290FE66E000EDA20E66EF2EC0DF068
:100CA000E552E552070EDB5008E0070EDB0405E0D5
:100CB000070EDB50020801E034D7070EDBCFE6FF5A
:100CC000D950020FE66E000EDA20E66ED950010F01
:100CD000E66E000EDA20E66ED9CFE6FFDACFE6FF49
:100CE0007FEC00F0106E070EE15E1050020EDBCFBD
:100CF000E6FF010EDBCFE6FFDFCFE6FF63EC0AF095
:100D0000E552E552E5525DEC02F0E76E030EE7CFE7
:100D1000DBFFD950060FE66E000EDA20E66ED950E2
:100D2000050FE66E000EDA20E66ED950040FE66E6F
:100D3000000EDA20E66ED8DC106E060EE15E105072
:100D4000060EDBCFE6FF050EDBCFE6FF040EDBCFA2
:100D5000E6FF030EDBCFE6FFAEEC0AF0E552E5520C
:100D6000E552E552070EDB50106E4D0EE15C03E2DA
:100D700000D0E16AE552E16E1050E552E7CFD9FFAD
:100D80001200D9CFE6FFE1CFD9FFE652060EE76E9B
:100D9000FD0EDBCF10F0FE0EDBCF11F0E75010267A
:100DA000000E1122FD0E10C0DBFFFE0E11C0DBFF96
:100DB00047EC0AF0DF6EDF380F0B070B300FE66EE3
:100DC000FD0EDBCFE9FFFE0EDBCFEAFFE552E75079
:100DD000EF6EFD0EDB2AFE0E01E3DB2A0F0EDF14A1
:100DE000300FE66EFD0EDBCFE9FFFE0EDBCFEAFF34
:100DF000E552E750EF6EFD0EDB2AFE0E01E3DB2A23
:100E0000FD0EDBCFE9FFFE0EDBCFEAFF200EEF6E1B
:100E1000E552E552E7CFD9FF1200D9CFE6FFE1CF87
:100E2000D9FFE652030EE76EFD0EDBCF10F0FE0E8B
:100E3000DBCF11F0E7501026000E1122FD0E10C07E
:100E4000DBFFFE0E11C0DBFF47EC0AF0DF6EDF3880
:100E50000F0B070B300FE66EFD0EDBCFE9FFFE0E2A
:100E6000DBCFEAFFE552E750EF6EFD0EDB2AFE0E08
:100E700001E3DB2A0F0EDF14300FE66EFD0EDBCF31
:100E8000E9FFFE0EDBCFEAFFE552E750EF6EFD0E05
:100E9000DB2AFE0E01E3DB2AFD0EDBCFE9FFFE0EAF
:100EA000DBCFEAFF3A0EEF6EE552E552E7CFD9FF0E
:100EB0001200D9CFE6FFE1CFD9FF020EE126010EE5
:100EC000DB6A47EC0AF0DF6EFC0EDB5003E0FC0E41
:100ED000DB040FE1DF380F0B010B300FE66EFD0E68
:100EE000DBCFE9FFFE0EDBCFEAFFE552E750EF6E06
:100EF0000ED0DF380F0B030B300FE66EFD0EDBCF8D
:100F0000E9FFFE0EDBCFEAFFE552E750EF6EFD0E84
:100F1000DB2AFE0E01E3DB2A0F0EDF14300FE66E34
:100F2000FD0EDBCFE9FFFE0EDBCFEAFFE552E75017
:100F3000EF6EFD0EDB2AFE0E01E3DB2AFD0EDBCF9A
:100F4000E9FFFE0EDBCFEAFF3A0EEF6E010EDB503B
:100F50000B0808E0FD0EDB2AFE0E01E3DB2A010E82
:100F6000DB2AF4D7060E106EDF5010C0E7FFE75201
:100F700004E0E8427F0BE706FCE1010B24E0DF50D0
:100F8000E00BE838E840010B09E0FD0EDBCFE9FF9C
:100F9000FE0EDBCFEAFF500EEF6E08D0FD0EDBCF6A
:100FA000E9FFFE0EDBCFEAFF410EEF6EFD0EDB2AFE
:100FB000FE0E01E3DB2AFD0EDBCFE9FFFE0EDBCFE9
:100FC000EAFF4D0EEF6E020EE15C02E2E16AE552CD
:100FD000E16EE552E7CFD9FF1200D9CFE6FFE1CFAE
:100FE000D9FF110EE76EFB0EDBCF10F0FC0EDBCF4E
:100FF00011F0E7501026000E1122FB0E10C0DBFF8F
:10100000FC0E11C0DBFFFD0EDBCFE9FFFE0EDBCFD8
:10101000EAFFEF501CE0FD0EDBCFE9FFFE0EDBCF59
:10102000EAFFEF50E66EFB0EDBCFE9FFFC0EDBCFF5
:10103000EAFFE552E750EF6EFB0EDB2AFC0E01E300
:10104000DB2AFD0EDB2AFE0E01E3DB2ADCD7020ED3
:10105000E76EFB0EDBCF10F0FC0EDBCF11F0E7509C
:101060001026000E1122FB0E10C0DBFFFC0E11C07B
:10107000DBFFFB0EDBCFE9FFFC0EDBCFEAFF200E30
:10108000EF6EE552E7CFD9FF1200D9CFE6FFE1CFEF
:10109000D9FF1C0EE126D9CFE9FFDACFEAFF530EC4
:1010A000EE6E550EEE6E4E0EEE6EEE6AD950040FD9
:1010B000E96EDACFEAFF4D0EEE6E4F0EEE6E4E0E7B
:1010C000EE6EEE6AD950080FE96EDACFEAFF540EE1
:1010D000EE6E550EEE6E450EEE6EEE6AD9500C0FAA
:1010E000E96EDACFEAFF570EEE6E450EEE6E440E55
:1010F000EE6EEE6AD950100FE96EDACFEAFF540EA9
:10110000EE6E480EEE6E550EEE6EEE6AD950140F6E
:10111000E96EDACFEAFF460EEE6E520EEE6E490E23
:10112000EE6EEE6AD950180FE96EDACFEAFF530E71
:10113000EE6E410EEE6E540EEE6EEE6AFE0EDB505B
:10114000070A6BE0010A59E0030A47E0010A35E0AB
:10115000070A23E0010A11E0030A01E06ED06B0EDA
:10116000E66E000EE66ED9CFE6FFDACFE6FF35DF9A
:10117000E552E552E552E55260D06B0EE66E000E88
:10118000E66ED950040FE66E000EDA20E66E25DF1B
:10119000E552E552E552E55250D06B0EE66E000E78
:1011A000E66ED950080FE66E000EDA20E66E15DF07
:1011B000E552E552E552E55240D06B0EE66E000E68
:1011C000E66ED9500C0FE66E000EDA20E66E05DFF3
:1011D000E552E552E552E55230D06B0EE66E000E58
:1011E000E66ED950100FE66E000EDA20E66EF5DEE0
:1011F000E552E552E552E55220D06B0EE66E000E48
:10120000E66ED950140FE66E000EDA20E66EE5DECB
:10121000E552E552E552E55210D06B0EE66E000E37
:10122000E66ED950180FE66E000EDA20E66ED5DEB7
:10123000E552E552E552E55200D01C0EE15C02E2B7
:10124000E16AE552E16EE552E7CFD9FF120047ECC3
:101250000AF0070BE66E19DFE5521200D9CFE6FF60
:10126000E1CFD9FFE652170EE76EFD0EDBCF10F08F
:10127000FE0EDBCF11F0E7501026000E1122FD0EFE
:1012800010C0DBFFFE0E11C0DBFFFD0EDBCFE9FF60
:10129000FE0EDBCFEAFF200EEF6EFD0EDB2AFE0E08
:1012A00001E3DB2A47EC0AF0DF6EDF380F0B030B9C
:1012B000300FE66EFD0EDBCFE9FFFE0EDBCFEAFF5F
:1012C000E552E750EF6EFD0EDB2AFE0E01E3DB2A4E
:1012D0000F0EDF14300FE66EFD0EDBCFE9FFFE0EC2
:1012E000DBCFEAFFE552E750EF6EFD0EDB2AFE0E84
:1012F00001E3DB2AFD0EDBCFE9FFFE0EDBCFEAFFC9
:101300002F0EEF6EE552E552E7CFD9FF1200D9CF8D
:10131000E6FFE1CFD9FFE6521B0EE76EFD0EDBCFF5
:1013200010F0FE0EDBCF11F0E7501026000E112258
:10133000FD0E10C0DBFFFE0E11C0DBFF47EC0AF014
:10134000DF6EDF380F0B010B300FE66EFD0EDBCFCB
:10135000E9FFFE0EDBCFEAFFE552E750EF6EFD0E30
:10136000DB2AFE0E01E3DB2A0F0EDF14300FE66EE0
:10137000FD0EDBCFE9FFFE0EDBCFEAFFE552E750C3
:10138000EF6EFD0EDB2AFE0E01E3DB2AFD0EDBCF46
:10139000E9FFFE0EDBCFEAFF2F0EEF6EE552E552BE
:1013A000E7CFD9FF1200D9CFE6FFE1CFD9FFE65250
:1013B0001E0EE76EFD0EDBCF10F0FE0EDBCF11F040
:1013C000E7501026000E1122FD0E10C0DBFFFE0EAE
:1013D00011C0DBFF47EC0AF0DF6EDF380F0B300F78
:1013E000E66EFD0EDBCFE9FFFE0EDBCFEAFFE55236
:1013F000E750EF6EFD0EDB2AFE0E01E3DB2A0F0E37
:10140000DF14300FE66EFD0EDBCFE9FFFE0EDBCF03
:10141000EAFFE552E750EF6EFD0EDB2AFE0E01E318
:10142000DB2AFD0EDBCFE9FFFE0EDBCFEAFF0D0E60
:10143000EF6EFD0EDB2AFE0E01E3DB2AFD0EDBCF95
:10144000E9FFFE0EDBCFEAFFEF6AE552E552E7CF98
:04145000D9FF1200AE
:0C145400D9CFE6FFE1CFD9FFE652C95026
:10146000DF6EC950DF6EE552E552E7CFD9FF1200BB
:10147000D9CFE6FFE1CFD9FFFE0EDBCFE6FF96EC3A
:101480000FF0E552E7DFE552E7CFD9FF1200D9CFE1
:10149000E6FFE1CFD9FFE652C582C5B2FED7010E05
:1014A000E66E72EC0EF0E552D10EE66EE1DFE5522B
:1014B000BEEC10F0DF6ECEDFDF5000D0E552E5521B
:1014C000E7CFD9FF1200D9CFE6FFE1CFD9FF800ED9
:1014D000E66E080EE66E39EC10F0E552E552010EAC
:1014E000E66E72EC0EF0E552C580C5B0FED7B2DFF5
:1014F000D00EE66EBDDFE552010EE66E72EC0EF028
:10150000E552E66AB5DFE552010EE66E72EC0EF0CA
:10151000E552FE0EDBCFE6FFABDFE552010EE66ED5
:1015200072EC0EF0E552FD0EDBCFE6FFA1DFE552D7
:10153000010EE66E72EC0EF0E552FC0EDBCFE6FF1C
:1015400097DFE552010EE66E72EC0EF0E552C584AF
:10155000C5B4FED7E552E7CFD9FF1200D9CFE6FFD9
:10156000E1CFD9FFC580C5B0FED774DFD00EE66EDF
:101570007FDFE552010EE66E72EC0EF0E552030ECF
:10158000E66E76DFE552010EE66E72EC0EF0E55285
:10159000FE0EDBCFE6FF6CDFE552010EE66E72EC6D
:1015A0000EF0E552FD0EDBCFE6FF62DFE552010EE5
:1015B000E66E72EC0EF0E552FC0EDBCFE6FF58DF74
:1015C000E552010EE66E72EC0EF0E552FB0EDBCF3B
:1015D000E6FF4EDFE552010EE66E72EC0EF0E552CC
:1015E000C584C5B4FED7DDEC10F0640EE66E72EC77
:1015F0000EF0E552E552E7CFD9FF1200D9CFE6FF52
:10160000E1CFD9FF800EE66E080EE66E39EC10F0E1
:10161000E552E552010EE66E72EC0EF0E552C58021
:10162000C5B0FED70A0EE66E8AEC0EF0E552D00E7B
:10163000E66E1EDFE552010EE66E72EC0EF0E5522C
:10164000E66A16DFE5520A0EE66E72EC0EF0E5521F
:10165000210EE66E6B0EE66E000EE66E61EC00F09B
:10166000E552E552E5526B0EE66E000EE66EC1ECF9
:1016700006F0E552E5526B0EE66E000EE66E0DECDE
:1016800007F0E552E552FE0EDBCFE6FF6B0EE66E8D
:10169000000EE66E59EC07F0E552E552E55227ECF4
:1016A00009F06B0EE66E000EE66E2EEC09F0E552C8
:1016B000E5526B0EE66E000EE66E87EC09F0E55221
:1016C000E5526B0EE66E000EE66ED3EC09F0E552C5
:1016D000E552D6EC10F0C58AC588C5B8FED7D6EC61
:1016E00010F0C584C5B4FED7DDEC10F0E552E7CFAD
:1016F000D9FF1200D9CFE6FFE1CFD9FFE652C5806E
:10170000C5B0FED7010EE66E72EC0EF0E552D00EBB
:10171000E66EAEDEE552FE0EDBCFE6FFA9DEE55259
:10172000C582C5B2FED7010EE66E72EC0EF0E55230
:10173000D10EE66E9DDEE552BEEC10F0DF6E8ADE65
:10174000C584C5B4FED7DF5000D0E552E552E7CFDF
:10175000D9FF1200D9CFE6FFE1CFD9FFC580C5B0D0
:10176000FED778DED00EE66E83DEE552010EE66E21
:1017700072EC0EF0E552FD0EDBCFE6FF79DEE552AE
:10178000010EE66E72EC0EF0E552FE0EDBCFE6FFC8
:101790006FDEE552010EE66E72EC0EF0E552C58486
:1017A000C5B4FED7C80EE66E72EC0EF0E552E552F7
:0617B000E7CFD9FF120093
:0A17B600D9CFE6FFE1CFD9FF430EC3
:1017C000E126D950010FE96EDACFEAFF0A0EEE6E7C
:1017D000440EEE6E6F0EEE6E200EEE6E790EEE6E15
:1017E0006F0EEE6E750EEE6E200EEE6E770EEE6ED6
:1017F000610EEE6E6E0EEE6E740EEE6E200EEE6EDE
:10180000740EEE6E6F0EEE6E200EEE6E730EEE6EBA
:10181000650EEE6E740EEE6E200EEE6E740EEE6EB3
:10182000680EEE6E650EEE6E200EEE6E740EEE6EAF
:10183000690EEE6E6D0EEE6E650EEE6E3F0EEE6E86
:10184000200EEE6E790EEE6E2F0EEE6E6E0EEE6EBA
:10185000EE6AEE6AD950240FE96EDACFEAFF500E35
:10186000EE6E6C0EEE6E650EEE6E610EEE6E730E2B
:10187000EE6E650EEE6E200EEE6E650EEE6E6E0E68
:10188000EE6E740EEE6E650EEE6E720EEE6E200E45
:10189000EE6E610EEE6E200EEE6E760EEE6E610E48
:1018A000EE6E6C0EEE6E690EEE6E640EEE6E200E37
:1018B000EE6E640EEE6E610EEE6E740EEE6E610EE6
:1018C000EE6E2E0EEE6EEE6E210EEE6EEE6A410E96
:1018D000DB6A2C0EF36E410EF3CFDBFF310EC86EC8
:1018E0001F0EE66E410EDBCFE6FFCEEC0DF0E552AB
:1018F000E552380EE66E35EC0DF0E5520C0EE66E54
:1019000004EC0DF0E552D950010FE66E000EDA201E
:10191000E66EF2EC0DF0E552E55219EC0EF0E76ED2
:10192000420EE7CFDBFFDB50590804E0420EDB50EC
:10193000790804E1D9EC04F0DF6E14D0420EDB50DC
:101940004E0804E0420EDB506E0802E11BD00AD0C4
:10195000D950240FE66E000EDA20E66EF2EC0DF0A0
:10196000E552E552420EDB5059080CE0420EDB50C6
:10197000790808E0420EDB504E0804E0420EDB50CE
:101980006E08C1E1010EE66E04EC0DF0E552800E2A
:10199000E66ECFEC0FF0E552DFCFE6FFFEEC0AF08B
:1019A000E5526B0EE66E000EE66EF2EC0DF0E552BF
:1019B000E5526B0EE66E000EE66E8CEC0DF0E55215
:1019C000E5520A0EE66E72EC0EF0E552E5D7430ED4
:1019D000E15C02E2E16AE552E16EE552E7CFD9FF50
:0219E0001200F3
:0E19E20089828994CAEC0EF08980CAEC0EF05E
:1019F00083AE05D089908992010E05D004D08990DC
:101A00008992000E00D01200D9CFE6FFE1CFD9FFB6
:101A1000956AFE0EDB50836E89928994CAEC0EF0B3
:101A20008980CAEC0EF08990CAEC0EF0956800D05F
:101A3000E552E7CFD9FF1200D9CFE6FFE1CFD9FFBA
:101A4000956AFE0EDB50836E89848992CAEC0EF093
:101A50008980CAEC0EF08990CAEC0EF089949568E2
:101A600000D0E552E7CFD9FF1200D9CFE6FFE1CF92
:101A7000D9FF836A956A92929294929089928994FE
:101A80008990DFEC0EF0300EE66EBEDFE552050EFB
:101A9000E66E54EC10F0E552300EE66EB5DFE5521E
:101AA000010EE66E54EC10F0E552320EE66EACDF3D
:101AB000E55297DF000901E0FCD793DF000901E060
:101AC000FCD7FE0EDBCFE6FF9FDFE5528ADF000981
:101AD00001E0FCD7080EE66E97DFE55282DF0009D1
:101AE00001E0FCD70F0EE66E8FDFE5527ADF0009CA
:101AF00001E0FCD7010EE66E87DFE55272DF0009D8
:101B000001E0FCD7800EE66ECFEC0FF0E55200D07E
:101B1000E552E7CFD9FF1200D9CFE6FFE1CFD9FFD9
:101B2000E652DF6A800EE66E6FDFE552100EDF5C74
:101B300011E0FD0EDBCFE9FFFE0EDBCFEAFFEF5039
:101B4000E66E7ADFE552FD0EDB2AFE0E01E3DB2AAC
:101B5000DF2AECD7FD0EDB2AFE0E01E3DB2A110E95
:101B6000DF6EC00EE66E50DFE552200EDF5C11E046
:101B7000FD0EDBCFE9FFFE0EDBCFEAFFEF50E66E96
:101B80005BDFE552FD0EDB2AFE0E01E3DB2ADF2AD6
:0C1B9000ECD7E552E552E7CFD9FF120078
:041B9C00D9CFE6FFB8
:101BA000E1CFD9FFFD0EDBCFE6FFE66AFE0EDBCF0D
:101BB000E6FF51EC0FF0E552E552E552E552E7CF72
:101BC000D9FF1200D9CFE6FFE1CFD9FFFE0EDBCF60
:101BD000E6FF6BEC10F0E552ACA2FED7E552E7CF82
:101BE000D9FF1200D9CFE6FFE1CFD9FF0D0EE66E87
:101BF000E9DFE552FD0EDBCFE9FFFE0EDBCFEAFFAA
:101C0000EF5013E0FD0EDBCFE9FFFE0EDBCFEAFF66
:101C1000EF50E66E6BEC10F0E552ACA2FED7FD0E75
:101C2000DB2AFE0E01E3DB2AE5D7E552E7CFD9FF39
:101C30001200D9CFE6FFE1CFD9FFE6529EAAFED728
:101C40001AEC10F0DF6E0A0EE66EBCDFE5520D0EE8
:101C5000E66EB8DFE552DFCFE6FFB4DFE552DF50D6
:101C600000D0E552E552E7CFD9FF1200D9CFE6FF09
:101C7000E1CFD9FF020EE1260D0EE66EA3DFE5529D
:101C80000A0EE66E9FDFE552DF6AFC0EDB50DF5C7A
:101C90001FE29EAAFED71AEC10F0E76E010EE7CF06
:101CA000DBFFFD0EDBCFE9FFFE0EDBCFEAFF010E0F
:101CB000DBCFEFFFDBCFE6FF6BEC10F0E552ACA221
:101CC000FED7FD0EDB2AFE0E01E3DB2ADF2ADDD77D
:101CD000020EE15C02E2E16AE552E16EE552E7CF15
:041CE000D9FF120016
:0C1CE400D9CFE6FFE1CFD9FFE652DF6A5E
:101CF000FE0EDB50D880DF5407E3050EE66E82EC63
:101D000010F0E552DF2AF4D700D0E552E552E7CFD4
:101D1000D9FF1200D9CFE6FFE1CFD9FFE652DF6A43
:101D2000FE0EDB50D880DF5407E3010EE66E82EC36
:101D300010F0E552DF2AF4D700D0E552E552E7CFA4
:101D4000D9FF1200D9CFE6FFE1CFD9FF020EE1267D
:101D5000DF6AFE0EDB50DF5C13E2010EDB6A0A0E67
:101D6000F36E010EDBCFF4FFF350F45C07E2640E78
:101D7000E66EB8DFE552010EDB2AF1D7DF2AE9D79C
:101D8000020EE15C02E2E16AE552E16EE552E7CF64
:101D9000D9FF1200D9CFE6FFE1CFD9FFE652DF6AC3
:101DA0000A0EDF5C07E2320EE66ECBEC10F0E55275
:101DB000DF2AF6D7E552E552E7CFD9FF12004B0EE6
:101DC000E66E82EC10F0E55200D01200D9CFE6FFAB
:101DD000E1CFD9FFE652DF6A140EDF5C07E2190E8D
:101DE000E66E82EC10F0E552DF2AF6D700D0E5521D
:101DF000E552E7CFD9FF1200010EE66E54EC10F069
:041E0000E552120095
:0C1E0400060EF66E000EF76E000EF86E73
:101E100000010900F550726F0900F550736F03E17E
:101E2000726701D03DD00900F5506D6F0900F55083
:101E30006E6F0900F5506F6F09000900F550E96EEB
:101E40000900F550EA6E090009000900F550706FAD
:101E50000900F550716F09000900F6CF74F0F7CF53
:101E600075F0F8CF76F06DC0F6FF6EC0F7FF6FC06B
:101E7000F8FF0001705302E1715307E00900F550CB
:101E8000EE6E7007F8E27107F9D774C0F6FF75C0FF
:101E9000F7FF76C0F8FF00017207000E735BBFD733
:021EA00012002E
:0E1EA200D9CFE6FFDACFE6FFE1CFD9FFE2CFDE
:101EB000DAFFAC6AAB6AFD0EDBB0AC88DBA202D005
:101EC000AC8CAB8CDBB4AC8EDBA602D0AB8801D083
:101ED000AB8ADBB8AC849E98DBBAAB86DBAC02D0B5
:101EE0009D8A01D09D9A9E9ADBAE02D09D8801D03A
:101EF0009D98FB0EDB50AF6EFB0EFC0EDBCF11F09E
:101F000011C010F0116A1050B06EAC8AAB8E949C68
:101F1000948EAC50100B04E0AC50800B01E1948C1B
:0C1F2000E552E5CFDAFFE7CFD9FF120051
:041F2C00D9CFE6FF24
:101F3000DACFE6FFE1CFD9FFE2CFDAFFFD0EDB50CB
:101F4000C96EC6AE02D0FF0E24D00F0EC61408080C
:101F50000FE00F0EC6140B080BE0C6889EA6FED736
:101F6000C750040B03E1C750010B10E0000E11D065
:101F70000F0EC614080804E00F0EC6140B0809E182
:101F8000C7B0FED7D6EC10F0C5AC02D0FE0E01D023
:0E1F9000000EE552E5CFDAFFE7CFD9FF1200D1
:021F9E00D9CF99
:101FA000E6FFDACFE6FFE1CFD9FFE2CFDAFFF00EAE
:101FB00093168116FD0EDB508009E8380F0B0F0BCE
:101FC00081128A9C8A9A0FD8F00E8116FD0EDB5082
:101FD0000F0B811208D80F0E9312E552E5CFDAFFEE
:101FE000E7CFD9FF1200CAEC0EF08A88CAEC0EF0D7
:041FF0008A981200B9
:0C1FF400D9CFE6FFDACFE6FFFA0EE3CF0C
:10200000D9FFFB0EE3CFDAFFFC0EE3CFE9FFFD0EB5
:10201000E3CFEAFFDE50EF5C02E1EE66FBD7F36E42
:10202000FF0EE3CFDAFFE552FF0EE3CFD9FFE55213
:04203000F350120057
:0C203400D9CFE6FFDACFE6FFE1CFD9FFFD
:10204000E2CFDAFFE652F20E00017717ABAC03D015
:102050007791ABB07781ABB47785ABB27787AE5071
:10206000DF6EDF50E552E552E5CFDAFFE7CFD9FF6B
:0220700012005C
:0E207200D9CFE6FFDACFE6FFE1CFD9FFE2CF0C
:10208000DAFF3F0EC716C66AC56AFD0EDB50C612E0
:10209000FC0EDB50C71293829380C68AE552E5CFCF
:0820A000DAFFE7CFD9FF1200BF
:0820A800FF0EE350146EEF0E71
:1020B00001D0F30EE76EE72E5BEF10F00C0E136EFF
:1020C000E76AE72E61EF10F0132E60EF10F0142E88
:0620D00059EF10F01200B0
:0A20D600D9CFE6FFDACFE6FFE1CF35
:1020E000D9FFE2CFDAFFACAC04D0AC90000177B3FB
:1020F000AC80FD0EDB50AD6EE552E5CFDAFFE7CFE9
:04210000D9FF1200F1
:0C210400FF0EE350146E480E01D04C0E8C
:10211000E76EE72EFED7E76AE72EFED7142EF7D735
:0421200000001200A9
:0C212400000EF36E00EE00F0080E01D873
:102130001200EA6002D0EE6AFCD7F350E9601200A8
:04214000EE6AFCD770
:0C21440013EE00F023EE00F0F86A0F9C90
:1021500002EC0FF0DFEC10F0DBEC0BF0FBD7120021
:10216000036A080EE76ED890073603360C50035CFE
:0C21700002E3036E072AE72EF7D71200E7
:04217C000F0EC61468
:10218000080804E00F0EC6140B0801E1C586C7A0BD
:06219000FED7C950120049
:0A219600FF0EE350E84E12000000B7
:0C21A00000D000D000D0E82EFAD71200CA
:0421AC001F0EC51429
:0A21B000FDE1C750040BFAE1120034
:0421BA00C69A1200AF
:0221BE0012000D
:0D21C0000000000000000000000000000012
:020000040030CA
:010001000CF2
:0100020019E4
:010003001EDE
:010005008179
:010006008079
:010008000FE8
:00000001FF
