:0400000011EF3AF0D2
:106C8B00313200C69A12004B0E6EEC36F01200C970
:106C9B00CF01F0C9CF01F01200F9EC36F0070B4A27
:106CAB00EC3DF01200026E025086EC36F0ACB212E4
:106CBB0000FDD7046E045044EC39F04DEC36F01265
:106CCB0000C5CF01F01F0E0116D8B4C7B4F9D71207
:106CDB0000016EFA0E00F0E82EFDD7012EFAD71246
:106CEB0000016E030EE82EFED700F0012EFAD7122C
:106CFB0000086E07C001F0026A0850A9EC39F012C7
:106D0B0000016EACAC03D0AC905EB2AC8001C0ADF8
:106D1B00FF1200000E026E04D0320E76EC36F0023B
:106D2B002A090E0264F9D71200026E0D0E016EFCD9
:106D3B000EE82EFED7012EFCD7022EF7D71200023B
:106D4B006E02500F0B010DF3CF01F002380F0B0A3F
:106D5B000DF35001241200026E000E036E04D005D9
:106D6B000E6EEC36F0032A0350025CD8A01200F72B
:106D7B00D7026E000E036E04D0010E6EEC36F003DC
:106D8B002A0350025CD8A01200F7D7F20E5E16ABA6
:106D9B00AC03D05E90ABB05E80ABB45E84ABB25E46
:106DAB0086AECF01F001501200026E3F0EC71600E7
:106DBB000EC66E000EC56E0250C6120150C712935E
:106DCB00829380C68A12009EAAFED7CBEC36F003C4
:106DDB006E0A0E58EC36F00D0E58EC36F003505888
:106DEB00EC36F003501200C582C5B2FED7010EB1CE
:106DFB00EC36F0D10E5FEC36F061EC37F0056E4DF2
:106E0B00EC36F005501200000E046E09D001C0D90B
:106E1B00FF02C0DAFF200EDF6E014A022A042A03AA
:106E2B0050045CD8B01200F2D7898289948FEC366B
:106E3B00F089808FEC36F083AE04D0899089920173
:106E4B000E03D089908992000E1200036E000E95EE
:106E5B006E03C083FF899289948FEC36F089808F03
:106E6B00EC36F089908FEC36F095681200036E00CB
:106E7B000E956E03C083FF898489928FEC36F0895F
:106E8B00808FEC36F089908FEC36F08994956812F0
:106E9B000001C0D9FF02C0DAFFDF50036E0338F0E8
:106EAB000B046E014A022A01C0D9FF02C0DAFFDFD0
:106EBB0050D00F04101200C6CF01F00F0E011601B7
:106ECB0050080AD8B407D0C6CF01F00F0E01160137
:106EDB00500B0AD8B4C586C7A0FED7C95012000DF7
:106EEB000E58EC36F00BD003C0D9FF04C0DAFFDF2D
:106EFB005086EC36F0ACA2FED7034A042A03C0D965
:106F0B00FF04C0DAFFDF50D8B41200EDD70D0E58D6
:106F1B00EC36F00A0E58EC36F0000E066E13D09ECF
:106F2B00AAFED7CBEC36F0076E03C0D9FF04C0DA4C
:106F3B00FF07C0DFFF075086EC36F0ACA2FED7038D
:106F4B004A042A062A0550065CD8B01200E8D7047A
:106F5B00D0014A022A034A042A01C0D9FF02C0DA2F
:106F6B00FFDF50056E03C0D9FF04C0DAFFDF50000E
:106F7B00080524066E066607D001C0D9FF02C0DAE9
:106F8B00FFDF50D8A4E5D70650016E026A01BE029E
:106F9B00061200030E0624066E000E0720076EF97C
:106FAB00EC36F0086E08380F0B070B300F06C0D904
:106FBB00FF07C0DAFFDF6E064A072A08500F0B30B7
:106FCB000F06C0D9FF07C0DAFFDF6E064A072A0695
:106FDB00C0D9FF07C0DAFF3A0EDF6E12001B0E0698
:106FEB0024066E000E0720076EF9EC36F0086E08CB
:106FFB00380F0B010B300F06C0D9FF07C0DAFFDFCC
:10700B006E064A072A08500F0B300F06C0D9FF0730
:10701B00C0DAFFDF6E064A072A06C0D9FF07C0DABF
:10702B00FF2F0EDF6E1200060E0624066E000E07F3
:10703B0020076EF9EC36F0086E08380F0B070B3093
:10704B000F06C0D9FF07C0DAFFDF6E064A072A0812
:10705B00500F0B300F06C0D9FF07C0DAFFDF6E06EB
:10706B004A072A06C0D9FF07C0DAFF200EDF6E12CF
:10707B0000066EF00E9316F00E81160650036E048A
:10708B006A038E040E056E043404320332052EFBA4
:10709B00D703500F0B81128A9C8A9A8FEC36F08A99
:1070AB00888FEC36F08A98F00E811606500F0B8104
:1070BB00128FEC36F08A888FEC36F08A980F0E938D
:1070CB00121200110E0324036E000E0420046E0E28
:1070DB00D001C0D9FF02C0DAFF03C0E1FF04C0E258
:1070EB00FFDFCFE7FF034A042A014A022A01C0D976
:1070FB00FF02C0DAFFDF50D8A4EBD7020E03240344
:10710B006E000E0420046E03C0D9FF04C0DAFF200A
:10711B000EDF6E1200000E066E800E2BEC37F00A9F
:10712B00D004C0D9FF05C0DAFFDF503CEC37F004C8
:10713B004A052A062A0650100AD8A4F2D7044A0593
:10714B002A110E066EC00E2BEC37F00AD004C0D9F4
:10715B00FF05C0DAFFDF503CEC37F0044A052A0686
:10716B002A0650200AD8B41200F1D71E0E062406A8
:10717B006E000E0720076EF9EC36F0086E08380F1C
:10718B000B300F06C0D9FF07C0DAFFDF6E064A07C8
:10719B002A08500F0B300F06C0D9FF07C0DAFFDFEC
:1071AB006E064A072A06C0D9FF07C0DAFF0D0EDFAD
:1071BB006E064A072A06C0D9FF07C0DAFF000EDFAA
:1071CB006E1200170E0624066E000E0720076E06C1
:1071DB00C0D9FF07C0DAFF200EDF6E064A072AF977
:1071EB00EC36F0086E08380F0B030B300F06C0D9C6
:1071FB00FF07C0DAFFDF6E064A072A08500F0B3075
:10720B000F06C0D9FF07C0DAFFDF6E064A072A0652
:10721B00C0D9FF07C0DAFF2F0EDF6E1200076E809A
:10722B000E016E080EDAEC36F0010EB1EC36F0C53D
:10723B0080C5B0FED74DEC36F0D00E5FEC36F001CA
:10724B000EB1EC36F0000E5FEC36F0010EB1EC3601
:10725B00F007505FEC36F0010EB1EC36F005505FE5
:10726B00EC36F0010EB1EC36F006505FEC36F00167
:10727B000EB1EC36F0C584C5A41200FDD7036E0326
:10728B00C0C9FFC6BE2CD0C6CF02F00F0E0216022D
:10729B0050080AD8B40FD0C6CF02F00F0E02160258
:1072AB00500B0AD8B407D0C6889EA6FED7C7B41712
:1072BB00D0C75015D0C6CF02F00F0E0216025008E1
:1072CB000AD8B408D0C6CF02F00F0E021602500B2C
:1072DB000AD8A405D0C7B0FED766EC36F0C550125D
:1072EB0000086EC580C5B0FED74DEC36F0D00E5FF2
:1072FB00EC36F0010EB1EC36F0030E5FEC36F0011C
:10730B000EB1EC36F008505FEC36F0010EB1EC36F6
:10731B00F005505FEC36F0010EB1EC36F006505F25
:10732B00EC36F0010EB1EC36F007505FEC36F001A5
:10733B000EB1EC36F0C584C5B4FED747EC36F0641D
:10734B000EB1EC36F01200066E000EAC6E000EABFA
:10735B006E06B0AC8806A202D0AC8CAB8C06B4AC7B
:10736B008E06A602D0AB8801D0AB8A06B8AC849E41
:10737B009806BAAB8606AC02D09D8A01D09D9A9E28
:10738B009A06AE02D09D8801D09D9801C0AFFF0236
:10739B00C003F003C004F0056A0450B06EAC8AABB6
:1073AB008E949C948EACB8ACBE01D0948C12000A17
:1073BB00456E74657220746865204441592053559D
:1073CB004E2D3031204D4F4E2D3032205455452D02
:1073DB003033205745442D30342054485552532DCB
:1073EB003035204652492D3036205341542D3037FD
:1073FB0000000A456E746572207468652074696DAF
:10740B006520696E2074686520666F726D617420EB
:10741B0048484D4D53530000EEF0F00D0EEE6AE868
:10742B0006FDE15E6ABA0EF66E730EF76E000EF88D
:10743B006E02EE00F010EE68F00900F5CFEEFFE5FE
:10744B0050E150FAE1580EF66E770EF76E000EF81B
:10745B006E01EE00F010EEF2F00900F5CFEEFFE555
:10746B0050E150FAE18B0EF66E6C0EF76E000EF8D3
:10747B006E0900F5CFFDF00900F5CFFEF00900F520
:10748B00CFFFF0000EF86E000125EF3CF0076E0009
:10749B000E836E000E956E929292949290899289C1
:1074AB0094899049EC36F0300E2BEC37F0050E9AA0
:1074BB00EC36F0300E2BEC37F0010E9AEC36F03246
:1074CB000E2BEC37F01AEC37F00009D8A4FBD71AC7
:1074DB00EC37F00009D8A4FBD707502BEC37F01A88
:1074EB00EC37F00009D8A4FBD7080E2BEC37F01AB9
:1074FB00EC37F00009D8A4FBD70F0E2BEC37F01AA2
:10750B00EC37F00009D8A4FBD7010E2BEC37F01A9F
:10751B00EC37F00009D8A4FBD7800E3EEC38F01204
:10752B000021EE95F010EE4BF0120EDECFE6FFE8E9
:10753B002EFCD722EE00F010EE08F0430EDECFE665
:10754B00FFE82EFCD7000E046E080E036E75EC37A9
:10755B00F00001000E026E0001F00E016E080E032A
:10756B006E09EC37F00001000E046E0001F00E0303
:10757B006E020E056E8CEC37F00001000E026E00F1
:10758B0001F00E016E4EEC37F05D6E0001000E0443
:10759B006E0001F00E036E75EC37F05D50D8B4063B
:1075AB00D0080E5D5CD8B002D05D500DD0000E043B
:1075BB006E4B0E036E75EC37F05D50D8B4D3D70815
:1075CB000E5D5CD8B0CFD71200000E0B6EF9EC3607
:1075DB00F00C6E0850D8B403D00804D8A404D00C17
:1075EB00380F0B010B03D00C380F0B030B300F06AE
:1075FB00C0D9FF07C0DAFFDF6E064A072A0C500F0F
:10760B000B300F06C0D9FF07C0DAFFDF6E064A0743
:10761B002A06C0D9FF07C0DAFF3A0EDF6E03D00689
:10762B004A072A0B2A0B500B0AD8A4F9D70CC0090E
:10763B00F0060E0A6ED89009320A2EFCD709A01E4E
:10764B00D00CC009F0050E0A6ED89009320A2EFC38
:10765B00D709A006D006C0D9FF07C0DAFF500E0528
:10766B00D006C0D9FF07C0DAFF410EDF6E064A070E
:10767B002A06C0D9FF07C0DAFF4D0EDF6E120022BB
:10768B006E800E016E080EDAEC36F0010EB1EC36A0
:10769B00F0C580C5B0FED70A0EBEEC36F0D00E5F3B
:1076AB00EC36F0010EB1EC36F0000E5FEC36F00A62
:1076BB000EB1EC36F00001000E026E0001FB0E0164
:1076CB006E210E036E09EC37F00001000E076E0001
:1076DB0001FB0E066E19EC38F00001000E076E0070
:1076EB0001FB0E066ECFEC37F00001000E076E00AB
:1076FB0001FB0E066E22C008F0EAEC3AF052EC36B3
:10770B00F00001000E076E0001FB0E066EE7EC3871
:10771B00F00001000E076E0001FB0E066EF4EC3755
:10772B00F00001000E076E0001FB0E066EBBEC387D
:10773B00F066EC36F0C58AC588C5B8FED766EC3660
:10774B00F0C584C5B4FED747EC36F012000A446F7F
:10775B0020796F752077616E7420746F2073657458
:10776B00207468652074696D653F20792F6E000069
:10777B000A456E74657220444154452F4D4F4E544B
:10778B00482F594541520944444D4D595900506CAD
:10779B006561736520656E74657220612076616C1E
:1077AB00696420646174612E2E21000A53454C4597
:1077BB004354204D4F44452031322F3234000A4977
:1077CB006E76616C696420456E7472792E2E210081
:1077DB000A496E76616C696420456E7472792E2E3F
:1077EB0021000A496E76616C696420456E7472796A
:1077FB002E2E21000A496E76616C696420456E74E9
:10780B0072792E2E21000A456E74657220414D2F20
:10781B00504D3F0053554E004D4F4E0054554500B3
:10782B0057454400544855004652490053415400B3
:10783B00323400616D00414D00706D00504D0021E0
:10784B00EE00F010EEADF0230EDECFE6FFE82EFCDF
:10785B00D721EE41F010EED0F01D0EDECFE6FFE8A3
:10786B002EFCD7000E0001EE6F2C0E0001EE6F31D7
:10787B000EC86E1F0E076E0001EE517EEC36F0380F
:10788B000E4CEC3AF00C0E2BEC37F00001000E0412
:10789B006E0001AD0E036E75EC37F0E9EC36F000BF
:1078AB0001EF6F0001EF51590AD8B405D00001EF79
:1078BB0051790AD8A405D0BBEC3EF00001ED6F1254
:1078CB00D00001EF514E0AD8B421D00001EF516E18
:1078DB000AD8B41CD00001000E046E0001D00E03B8
:1078EB006E75EC37F00001EF51590AD8B40FD00088
:1078FB0001EF51790AD8B40AD00001EF514E0AD8E2
:10790B00B405D00001EF516E0AD8A4BFD7010E2BDE
:10791B00EC37F0800E3EEC38F00001ED5145EC3BBE
:10792B00F00001000E046E0001FB0E036E75EC37C8
:10793B00F00001000E056E0001FB0E046E90EC389A
:10794B00F00A0EB1EC36F0E8D721EE23F010EE0E74
:10795B00F01E0EDECFE6FFE82EFCD721EE83F010F3
:10796B00EE2CF0120EDECFE6FFE82EFCD7000E0455
:10797B006E0E0E036E75EC37F00001000E046E00F8
:10798B0001F00E036E060E056E8CEC37F000010055
:10799B000E026E0001F00E016E4EEC37F008C0D9EE
:1079AB00FF09C0DAFFDF6E0001000E026E0001F26C
:1079BB000E016E4EEC37F00AC0D9FF0BC0DAFFDFB9
:1079CB006E0001000E026E0001F40E016E4EEC37DC
:1079DB00F00CC0D9FF0DC0DAFFDF6E08C0D9FF096C
:1079EB00C0DAFFDF50A5EC36F03E6E0AC0D9FF0BB4
:1079FB00C0DAFFDF50A5EC36F03F6E0CC0D9FF0D9F
:107A0B00C0DAFFDF50A5EC36F0406E3E50D8B429FB
:107A1B00D0200E3E5CD8B025D03F50D8B422D00D2C
:107A2B000E3F5CD8B01ED04050D8B41BD0640E4073
:107A3B005CD8B017D008C0D9FF09C0DAFFDF503FC0
:107A4B000B08C0D9FF09C0DAFFDF6E0AC0D9FF0BE4
:107A5B00C0DAFFDF501F0B0AC0D9FF0BC0DAFFDF04
:107A6B006E06D0000E046E2C0E036E75EC37F020F4
:107A7B000E3E5CD8B07BD70D0E3F5CD8B077D76489
:107A8B000E405CD8A0120072D7216EC7C105F0C89A
:107A9B00C106F0C9C107F0CAC108F0CBC109F0CCCF
:107AAB00C10AF0CDC10BF0CEC10CF0CFC10DF0D09F
:107ABB00C10EF0D1C10FF0D2C110F0D3C111F0D46F
:107ACB00C112F0D5C113F0D6C114F0D7C115F0D83F
:107ADB00C116F0D9C117F0DAC118F0DBC119F0DC0F
:107AEB00C11AF0DDC11BF0DEC11CF0DFC11DF0E0DF
:107AFB00C11EF0E1C11FF0E2C120F05BD0000E020D
:107B0B006E050E016E0001000E046E0001FB0E03EC
:107B1B006E67EC38F064D0000E026E090E016E0039
:107B2B0001000E046E0001FB0E036E67EC38F0577C
:107B3B00D0000E026E0D0E016E0001000E046E00E1
:107B4B0001FB0E036E67EC38F04AD0000E026E118B
:107B5B000E016E0001000E046E0001FB0E036E673A
:107B6B00EC38F03DD0000E026E150E016E000100D8
:107B7B000E046E0001FB0E036E67EC38F030D00084
:107B8B000E026E190E016E0001000E046E0001FB59
:107B9B000E036E67EC38F023D0000E026E1D0E0143
:107BAB006E0001000E046E0001FB0E036E67EC38D5
:107BBB00F016D02150010AD8B4A1D7030AD8B4AB20
:107BCB00D7010AD8B4B5D7070AD8B4BFD7010AD89A
:107BDB00B4C9D7030AD8B4D3D7010AD8B4DDD712A6
:107BEB000022EE43F010EE0FF0250EDECFE6FFE89D
:107BFB002EFCD721EEA7F010EE34F0120EDECFE6FE
:107C0B00FFE82EFCD7000E046E0F0E036E75EC37DB
:107C1B00F00001000E046E0001F00E036E060E055F
:107C2B006E8CEC37F00001000E026E0001F00E01BD
:107C3B006E4EEC37F04B6E0001000E026E0001F23F
:107C4B000E016E4EEC37F0476E0001000E026E0017
:107C5B0001F40E016E4EEC37F0466E4650A5EC3635
:107C6B00F0486E4750A5EC36F0496E4B50A5EC36FC
:107C7B00F04A6E0E50D8B403D00E04D8A42BD03CCF
:107C8B000E485CD8B020D03C0E495CD8B01CD04A12
:107C9B0050D8B419D00D0E4A5CD8B015D046507FD1
:107CAB000B466E47507F0B476E4B501F0B4B6E0EA8
:107CBB006603D04B50400905D00E04D8A41BD04B03
:107CCB005060094B6E17D0000E046E340E036E75A8
:107CDB00EC37F01AD03C0E485CD8B010D03C0E49B3
:107CEB005CD8B00CD0190E4A5CD8B008D00E50023C
:107CFB000AD8A404D04B507F0B4B6E06D0000E0459
:107D0B006E340E036E75EC37F03C0E485CD8B00A3F
:107D1B00D03C0E495CD8B006D04A50D8B403D00C36
:107D2B000E4A6410D03C0E485CD8B06CD73C0E4960
:107D3B005CD8B068D7190E4A5CD8B064D70E500225
:107D4B000AD8A460D708C0D9FF09C0DAFF46C0DF44
:107D5B00FF0AC0D9FF0BC0DAFF47C0DFFF0CC0D949
:107D6B00FF0DC0DAFF4BC0DFFF1200040E0001ACA9
:107D7B006F21EE5EF010EE60F0130EDECFE6FFE843
:107D8B002EFCD721EEB9F010EE73F00E0EDECFE61F
:107D9B00FFE82EFCD721EE71F010EE81F0120EDE13
:107DAB00CFE6FFE82EFCD7FDC093F0FEC094F0FFAA
:107DBB00C095F0E3C196F0E4C197F0E5C198F0E609
:107DCB00C199F0E7C19AF0E8C19BF0E9C19CF0EAD8
:107DDB00C19DF0EBC19EF0ECC19FF0EDC1A0F0EEA8
:107DEB00C1A1F0EFC1A2F0F0C1A3F0F1C1A4F0006A
:107DFB0001000E046E0001600E036E75EC37F0008F
:107E0B0001000E046E0001F00E036E020E056E8C67
:107E1B00EC37F00001000E026E0001F00E016E0057
:107E2B0001000E046E0001930E036EADEC37F002F1
:107E3B00500110D8A471D00001000E046E00017324
:107E4B000E036E75EC37F00001000E046E0001F0AE
:107E5B000E036E020E056E8CEC37F00001000E0265
:107E6B006E0001F00E016E0001000E046E00019910
:107E7B000E036EADEC37F002500110D8B412D000E7
:107E8B0001000E026E0001F00E016E0001000E04E7
:107E9B006E00019C0E036EADEC37F002500110D852
:107EAB00A402D0000E25D00001000E026E0001F0DE
:107EBB000E016E0001000E046E00019F0E036EADED
:107ECB00EC37F002500110D8B412D00001000E02B2
:107EDB006E0001F00E016E0001000E046E0001A297
:107EEB000E036EADEC37F002500110D8A404D00194
:107EFB000E0001AC6F08D00001000E046E00018172
:107F0B000E036E75EC37F00001AC51D8B423D000E2
:107F1B0001AC05D8B41FD08FD70001000E026E0044
:107F2B0001F00E016E0001000E046E0001960E03AF
:107F3B006EADEC37F002500110D8A404D0020E0045
:107F4B0001AC6F08D00001000E046E0001810E031E
:107F5B006E75EC37F00001AC51D8B409D00001AC10
:107F6B0005D8B405D00001AC51020AD8A440D70003
:107F7B0001000E096E0001A60E086E0001000E0B2B
:107F8B006E0001A70E0A6E0001000E0D6E0001A817
:107F9B000E0C6EACC00EF0F6EC3DF0A7C005F0A8D1
:107FAB00C006F00001A65114EC39F096EC3AF00043
:107FBB0001A56F0001000E096E0001AA0E086E00EC
:107FCB0001000E0B6E0001AB0E0A6E0001000E0DD0
:107FDB006E0001A90E0C6EAAEC3CF0AAC005F0AB2A
:107FEB00C006F0A9C007F00001A55176EC39F000EE
:067FFB0001AC511200FF71
:020000040020DA
:08000000FFFFFFFFFFFFFFFF00
:020000040030CA
:0E000000040C191EFF8080FF0FC00FE00F40A0
:00000001FF
