:04000000D1EF38F014
:106D7800C69A1200C9CF01F0C9CF01F01200C55060
:106D88001F0BD8B4C7B4FBD7120002C001F0EDEC5A
:106D980036F0ACB21200FDD722C001F0EAEC37F0B1
:106DA800BEEC36F01200FA0E00F0E82EFDD7012EE8
:106DB800FAD7120064EC37F0070B056E31EC3DF0A2
:106DC800120004C001F005C002F0036A55EC39F066
:106DD8001200ACAC05D0AC9000010001F2B3AC805D
:106DE80001C0ADFF120001500F0B010DF3CF02F0EF
:106DF80001380F0B0A0DF35002241200C6500F0B76
:106E0800080AD8B404D0C6500F0B0B0AD8B4C586EC
:106E1800C7A0FED7C95012003F0EC716000EC66E97
:106E2800000EC56E0150C6120250C712938293809D
:106E3800C68A1200236E000E246E235007D0236EDC
:106E4800050E016E2350D7EC36F0242A2450226018
:106E5800F6D71200036E000E046E035007D0036EBF
:106E6800010E016E0350D7EC36F0042A045002607C
:106E7800F6D7120001C0D9FF02C0DAFFDF50036E57
:106E88000338F00B046E014A022A01C0D9FF02C080
:106E9800DAFFDF50D00F04101200046E000E056EEA
:106EA800045009D001C0D9FF02C0DAFF200EDF6EFE
:106EB800014A022A052A0350055CD8B01200F2D70D
:106EC800C582C5B2FED7256E010E226E25501EEC76
:106ED80037F0256ED10E226E2550D0EC36F002EC3C
:106EE80037F0266EBEEC36F0265012009EAAFED76A
:106EF800ACEC37F0046E036E0A0E026E0350C9EC58
:106F080036F0036E0D0E026E0350C9EC36F004C065
:106F180002F0C9EC36F004501200056E0D0E026E38
:106F28000550C9EC36F00CD003C0D9FF04C0DAFF15
:106F3800DF50016EEDEC36F0ACA2FED7034A042A0E
:106F480003C0D9FF04C0DAFFDF50D8B41200ECD771
:106F5800F20E00010001F217ABAC08D000010001ED
:106F6800F291ABA003D000010001F281ABA403D0E1
:106F780000010001F285ABA203D000010001F287F5
:106F8800AECF01F00150120004D0014A022A034A90
:106F9800042A01C0D9FF02C0DAFFDF50056E03C022
:106FA800D9FF04C0DAFFDF5000080524066E066624
:106FB80007D001C0D9FF02C0DAFFDF50D8A4E5D757
:106FC8000650016E026A01BE0206120001C0C9FF26
:106FD800C6BE20D0C6500F0B080AD8B40CD0C65075
:106FE8000F0B0B0AD8B407D0C6889EA6FED7C7B425
:106FF80011D0C7500FD0C6500F0B080AD8B405D00F
:10700800C6500F0B0B0AD8A405D0C7B0FED7C3ECE7
:1070180036F0C5501200060E2724276E000E2820D1
:10702800286E64EC37F0296E29380F0B070B300FE8
:1070380027C0D9FF28C0DAFFDF6E274A282A29503F
:107048000F0B300F27C0D9FF28C0DAFFDF6E274AA1
:10705800282A27C0D9FF28C0DAFF200EDF6E1200C9
:10706800030E2724276E000E2820286E64EC37F0C4
:10707800296E29380F0B070B300F27C0D9FF28C0FE
:10708800DAFFDF6E274A282A29500F0B300F27C056
:10709800D9FF28C0DAFFDF6E274A282A27C0D9FF80
:1070A80028C0DAFF3A0EDF6E12001B0E2724276E67
:1070B800000E2820286E64EC37F0296E29380F0B53
:1070C800010B300F27C0D9FF28C0DAFFDF6E274A2F
:1070D800282A29500F0B300F27C0D9FF28C0DAFF04
:1070E800DF6E274A282A27C0D9FF28C0DAFF2F0ECB
:1070F800DF6E1200110E0324036E000E0420046ECE
:107108000ED001C0D9FF02C0DAFF03C0E1FF04C0FE
:10711800E2FFDFCFE7FF034A042A014A022A01C03F
:10712800D9FF02C0DAFFDF50D8A4EBD7020E032440
:10713800036E000E0420046E03C0D9FF04C0DAFFFA
:10714800200EDF6E1200066E0D0E026E0650C9ECA0
:1071580036F0066E0A0E026E0650C9EC36F0066E60
:10716800000E076E065014D09EAAFED7ACEC37F07E
:10717800086E03C0D9FF04C0DAFF08C0DFFF08C0EB
:1071880001F0EDEC36F0ACA2FED7034A042A072A38
:107198000550075CD8B01200E7D700EEF2F00E0EEB
:1071A800EE6AE806FDE1060EF66E730EF76E000E47
:1071B800F86E02EE00F010EE68F00900F5CFEEFF71
:1071C800E550E150FAE1150EF66E760EF76E000EF8
:1071D800F86E01EE00F010EEF5F00900F5CFEEFFC5
:1071E800E550E150FAE1000EF86E000104EF3CF0C2
:1071F8001E0E2724276E000E2820286E64EC37F018
:10720800296E29380F0B300F27C0D9FF28C0DAFFA5
:10721800DF6E274A282A29500F0B300F27C0D9FFC5
:1072280028C0DAFFDF6E274A282A27C0D9FF28C0DE
:10723800DAFF0D0EDF6E274A282A27C0D9FF28C09B
:10724800DAFF000EDF6E1200170E2724276E000EDD
:107258002820286E27C0D9FF28C0DAFF200EDF6E4D
:10726800274A282A64EC37F0296E29380F0B030BBC
:10727800300F27C0D9FF28C0DAFFDF6E274A282A37
:1072880029500F0B300F27C0D9FF28C0DAFFDF6E57
:10729800274A282A27C0D9FF28C0DAFF2F0EDF6E19
:1072A8001200000EAC6E000EAB6E01B0AC8801A2ED
:1072B80002D0AC8CAB8C01B4AC8E01A602D0AB88EA
:1072C80001D0AB8A01B8AC849E9801BAAB8601ACF8
:1072D80002D09D8A01D09D9A9E9A01AE02D09D88C7
:1072E80001D09D9802C0AFFF0350B06EAC8AAB8E40
:1072F800949C948EACB8ACBE01D0948C12000A4514
:107308006E74657220746865204441592053554E47
:107318002D3031204D4F4E2D3032205455452D30D3
:1073280033205745442D30342054485552532D307E
:1073380035204652492D3036205341542D303700E0
:10734800000A456E746572207468652074696D65FD
:1073580020696E2074686520666F726D61742048BC
:10736800484D4D535300286E080E016E2850296E63
:10737800800E026E295010EC37F0286E010E226E36
:1073880028501EEC37F0C580C5B0FED7BEEC36F0ED
:10739800286ED00E226E2850D0EC36F0286E010EE2
:1073A800226E28501EEC37F0286E000E226E2850F0
:1073B800D0EC36F0286E010E226E28501EEC37F005
:1073C80025C022F0D0EC36F0286E010E226E28502F
:1073D8001EEC37F026C022F0D0EC36F0286E010EF5
:1073E800226E28501EEC37F027C022F0D0EC36F081
:1073F800286E010E226E28501EEC37F0C584C5A4F5
:107408001200FDD7C580C5B0FED7BEEC36F0296E98
:10741800D00E226E2950D0EC36F0296E010E226E65
:1074280029501EEC37F0296E030E226E2950D0EC3D
:1074380036F0296E010E226E29501EEC37F025C059
:1074480022F0D0EC36F0296E010E226E29501EEC87
:1074580037F026C022F0D0EC36F0296E010E226EED
:1074680029501EEC37F027C022F0D0EC36F0296EF8
:10747800010E226E29501EEC37F028C022F0D0EC05
:1074880036F0296E010E226E29501EEC37F0C584A5
:10749800C5B4FED7BCEC36F0296E640E226E2950B6
:1074A8001EEC37F0120021EE95F010EE4DF0120EA2
:1074B800DECFE6FFE82EFCD722EE00F010EE0AF051
:1074C800430EDECFE6FFE82EFCD7000E046E0A0E50
:1074D800036E91EC37F00001000E026E0001F30E0E
:1074E800016E096E080E036E095051EC37F0000169
:1074F800000E046E0001F30E036E096E020E056E97
:107508000950A7EC38F00001000E026E0001F30EDE
:10751800016E3EEC37F05F6E0001000E046E000154
:10752800F30E036E91EC37F05F50D8B405D0080E17
:107538005F6002D05F500CD0000E046E4D0E036EDB
:1075480091EC37F05F50D8B4D2D7080E5F60CFD730
:1075580012002A6E000E2C6E2A5064EC37F02D6E45
:107568002950D8B403D02904D8A404D02D380F0B3F
:10757800010B03D02D380F0B030B300F27C0D9FF99
:1075880028C0DAFFDF6E274A282A2D500F0B300F4C
:1075980027C0D9FF28C0DAFFDF6E274A282A27C06C
:1075A800D9FF28C0DAFF3A0EDF6E03D0274A282A0F
:1075B8002C2A2C500B0AD8A4F9D72DC02AF0060E75
:1075C8002B6ED8902A322B2EFCD72AA01ED02DC085
:1075D8002AF0050E2B6ED8902A322B2EFCD72AA023
:1075E80006D027C0D9FF28C0DAFF500E05D027C023
:1075F800D9FF28C0DAFF410EDF6E274A282A27C0A4
:0C760800D9FF28C0DAFF4D0EDF6E120023
:107615000A446F20796F752077616E7420746F202E
:10762500736574207468652074696D653F20792FD2
:107635006E00000A456E74657220444154452F4D15
:107645004F4E54482F594541520944444D4D5959BF
:1076550000506C6561736520656E746572206120EC
:1076650076616C696420646174612E2E21000A5371
:10767500454C454354204D4F44452031322F32343B
:10768500000A496E76616C696420456E7472792EC4
:107695002E21000A496E76616C696420456E74720C
:1076A500792E2E21000A496E76616C696420456E3B
:1076B5007472792E2E21000A496E76616C696420F8
:1076C500456E7472792E2E21000A456E74657220FE
:1076D500414D2F504D3F0053554E004D4F4E0054D8
:1076E50055450057454400544855004652490053F6
:1076F500415400313200323400616D00414D00705B
:107705006D00504D002F6E080E016E2F50306E80AB
:107715000E026E305010EC37F02F6E010E226E2FD8
:10772500501EEC37F0C580C5B0FED72F6E0A0E028D
:107735006E2F502EEC37F02F6ED00E226E2F50D0BC
:10774500EC36F02F6E010E226E2F501EEC37F02F07
:107755006E000E226E2F50D0EC36F02F6E0A0E22E0
:107765006E2F501EEC37F00001000E026E0001FE78
:107775000E016E2F6E210E036E2F5051EC37F00067
:1077850001000E286E0001FE0E276E0FEC38F0008A
:1077950001000E286E0001FE0E276E34EC38F00055
:1077A50001000E286E0001FE0E276E2EC029F0ADD9
:1077B500EC3AF0DEEC36F00001000E286E0001FE1A
:1077C5000E276E28EC39F00001000E286E0001FE30
:1077D5000E276E59EC38F00001000E286E0001FEF0
:1077E5000E276EFCEC38F0C3EC36F0C58AC588C5AB
:1077F500B8FED7C3EC36F0C584C5B4FED7BCEC36AD
:10780500F0120021EE00F010EEAFF0230EDECFE611
:10781500FFE82EFCD721EE41F010EED2F01D0EDE72
:10782500CFE6FFE82EFCD70001AE6F000E00010089
:1078350001F06F0001AE510001AE6F2C0E0001008A
:1078450001F06F0001AE51310EC86EF0C004F000BA
:1078550001AE6F1F0E056E0001AE51E5EC36F0006E
:1078650001000E046E0001AF0E036E91EC37F07A45
:10787500EC37F000010001F16F00010001F15159F1
:107885000AD8B406D000010001F151790AD8A4063E
:10789500D09BEC3EF000010001EF6F14D000010019
:1078A50001F1514E0AD8B426D000010001F1516E04
:1078B5000AD8B420D00001000E046E0001D20E03D8
:1078C5006E91EC37F000010001F151590AD8B4125C
:1078D500D000010001F151790AD8B40CD0000100A3
:1078E50001F1514E0AD8B406D000010001F1516EE4
:1078F5000AD8A4B5D7EFC02EF085EC3BF000010007
:107905000E046E0001FE0E036E91EC37F00001AE21
:107915006F0A0E226E0001AE511EEC37F0EBD72137
:10792500EE23F010EE10F01E0EDECFE6FFE82EFC83
:10793500D721EE83F010EE2EF0120EDECFE6FFE833
:107945002EFCD7000E046E100E036E91EC37F0007E
:1079550001000E046E0001F30E036E0F6E060E0598
:107965006E0F50A7EC38F00001000E026E0001F317
:107975000E016E3EEC37F009C0D9FF0AC0DAFFDF11
:107985006E0001000E026E0001F50E016E3EEC3731
:10799500F00BC0D9FF0CC0DAFFDF6E0001000E024C
:1079A5006E0001F70E016E3EEC37F00DC0D9FF0EEB
:1079B500C0DAFFDF6E09C0D9FF0AC0DAFFDF500168
:1079C5006EF7EC36F0406E0BC0D9FF0CC0DAFFDF66
:1079D50050016EF7EC36F0416E0DC0D9FF0EC0DADE
:1079E500FFDF50016EF7EC36F0426E4050D8B426FA
:1079F500D0200E406023D04150D8B420D00D0E4188
:107A0500601DD04250D8B41AD0640E426017D00918
:107A1500C0D9FF0AC0DAFFDF503F0B09C0D9FF0A02
:107A2500C0DAFFDF6E0BC0D9FF0CC0DAFFDF501FD5
:107A35000B0BC0D9FF0CC0DAFFDF6E06D0000E04B9
:107A45006E2E0E036E91EC37F0200E40607AD70D46
:107A55000E416077D7640E426074D71200C7C10625
:107A6500F0C8C107F0C9C108F0CAC109F0CBC10A05
:107A7500F0CCC10BF0CDC10CF0CEC10DF0CFC10ED5
:107A8500F0D0C10FF0D1C110F0D2C111F0D3C112A5
:107A9500F0D4C113F0D5C114F0D6C115F0D7C11675
:107AA500F0D8C117F0D9C118F0DAC119F0DBC11A45
:107AB500F0DCC11BF0DDC11CF0DEC11DF0DFC11E15
:107AC500F0E0C11FF0E1C120F0E2C121F05BD00080
:107AD5000E026E060E016E0001000E046E0001FE20
:107AE5000E036E7EEC38F064D0000E026E0A0E01B5
:107AF5006E0001000E046E0001FE0E036E7EEC3872
:107B0500F057D0000E026E0E0E016E0001000E043D
:107B15006E0001FE0E036E7EEC38F04AD0000E02B8
:107B25006E120E016E0001000E046E0001FE0E03C2
:107B35006E7EEC38F03DD0000E026E160E016E0022
:107B450001000E046E0001FE0E036E7EEC38F0306F
:107B5500D0000E026E1A0E016E0001000E046E00BA
:107B650001FE0E036E7EEC38F023D0000E026E1E71
:107B75000E016E0001000E046E0001FE0E036E7E06
:107B8500EC38F016D00550010AD8B4A1D7030AD8AD
:107B9500B4ABD7010AD8B4B5D7070AD8B4BFD70153
:107BA5000AD8B4C9D7030AD8B4D3D7010AD8B4DDE3
:107BB500D7120022EE43F010EE11F0250EDECFE6CF
:107BC500FFE82EFCD721EEA7F010EE36F0120EDE00
:107BD500CFE6FFE82EFCD7000E046E110E036E9162
:107BE500EC37F00001000E046E0001F30E036E1079
:107BF5006E060E056E1050A7EC38F00001000E025F
:107C05006E0001F30E016E3EEC37F04D6E00010083
:107C15000E026E0001F50E016E3EEC37F0496E0066
:107C250001000E026E0001F70E016E3EEC37F048C2
:107C35006E48C001F0F7EC36F04A6E49C001F0F726
:107C4500EC36F04B6E4DC001F0F7EC36F04C6E0F94
:107C550050D8B403D00F04D8A428D03C0E4A601ED7
:107C6500D03C0E4B601BD04C50D8B418D00D0E4CE8
:107C75006015D048507F0B486E49507F0B496E4DBB
:107C8500501F0B4D6E0F6603D04D50400905D00FA8
:107C950004D8A418D04D5060094D6E14D0000E04C0
:107CA5006E360E036E91EC37F017D03C0E4A600E1F
:107CB500D03C0E4B600BD0190E4C6008D00F500213
:107CC5000AD8A404D04D507F0B4D6E06D0000E048B
:107CD5006E360E036E91EC37F03C0E4A6009D03CCF
:107CE5000E4B6006D04C50D8B403D00C0E4C640D2E
:107CF500D03C0E4A6070D73C0E4B606DD7190E4CC8
:107D0500606AD70F50020AD8A466D709C0D9FF0AFE
:107D1500C0DAFF48C0DFFF0BC0D9FF0CC0DAFF494E
:107D2500C0DFFF0DC0D9FF0EC0DAFF4DC0DFFF1267
:107D3500000001606F040E00010001AD6F000160DD
:107D45005121EE5EF010EE61F0130EDECFE6FFE896
:107D55002EFCD721EEB9F010EE74F00E0EDECFE654
:107D6500FFE82EFCD721EE71F010EE82F0120EDE48
:107D7500CFE6FFE82EFCD7E3C194F0E4C195F0E52A
:107D8500C196F0E6C197F0E7C198F0E8C199F0E92E
:107D9500C19AF0EAC19BF0EBC19CF0ECC19DF0EDFE
:107DA500C19EF0EEC19FF0EFC1A0F0F0C1A1F0F1CE
:107DB500C1A2F0F2C1A3F0F3C1A4F0F4C1A5F00093
:107DC50001000E046E0001610E036E91EC37F000A8
:107DD50001000E046E0001F30E036E0001606F02D8
:107DE5000E056E00016051A7EC38F00001000E028F
:107DF5006E0001F30E016E0001000E046E00019489
:107E05000E036EC8EC37F002500110D8A47ED000E6
:107E150001000E046E0001740E036E91EC37F00044
:107E250001000E046E0001F30E036E0001606F0287
:107E35000E056E00016051A7EC38F00001000E023E
:107E45006E0001F30E016E0001000E046E00019A32
:107E55000E036EC8EC37F002500110D8B412D000F2
:107E650001000E026E0001F30E016E0001000E040A
:107E75006E00019D0E036EC8EC37F002500110D85C
:107E8500A404D00001606F000E27D00001000E028F
:107E95006E0001F30E016E0001000E046E0001A0DC
:107EA5000E036EC8EC37F002500110D8B412D000A2
:107EB50001000E026E0001F30E016E0001000E04BA
:107EC5006E0001A30E036EC8EC37F002500110D806
:107ED500A409D00001606F010E00010001AD6F0023
:107EE50001605108D00001000E046E0001820E03EE
:107EF5006E91EC37F000010001AD51D8B429D000E6
:107F0500010001AD05D8B424D082D70001000E02CE
:107F15006E0001F30E016E0001000E046E00019764
:107F25000E036EC8EC37F002500110D8A409D0003A
:107F350001606F020E00010001AD6F000160510884
:107F4500D00001000E046E0001820E036E91EC3725
:107F5500F000010001AD51D8B40BD000010001AD16
:107F650005D8B406D000010001AD51020AD8A427F6
:107F7500D70001000E0A6E0001A70E096E00010070
:107F85000E0C6E0001A80E0B6E0001000E0E6E00A9
:107F950001A90E0D6EADC00FF0DCEC3DF0A7C025BC
:107FA500F0A8C026F0A9C027F0B7EC39F057EC3A95
:107FB500F000010001A66F0001000E0A6E0001AB82
:107FC5000E096E0001000E0C6E0001AC0E0B6E006A
:107FD50001000E0E6E0001AA0E0D6E92EC3CF0A68D
:107FE500C025F0ABC026F0ACC027F0AAC028F0062B
:0C7FF500EC3AF000010001AD511200FF59
:020000040020DA
:08000000FFFFFFFFFFFFFFFF00
:020000040030CA
:0E000000040C1F1EFF8081FF0FC00FE00F4099
:00000001FF
